{
  "contractName": "Election",
  "abi": [
    {
      "inputs": [],
      "stateMutability": "nonpayable",
      "type": "constructor"
    },
    {
      "anonymous": false,
      "inputs": [
        {
          "indexed": true,
          "internalType": "uint256",
          "name": "_candidateId",
          "type": "uint256"
        }
      ],
      "name": "electionupdates",
      "type": "event"
    },
    {
      "inputs": [
        {
          "internalType": "uint256",
          "name": "",
          "type": "uint256"
        }
      ],
      "name": "candidates",
      "outputs": [
        {
          "internalType": "uint256",
          "name": "id",
          "type": "uint256"
        },
        {
          "internalType": "string",
          "name": "name",
          "type": "string"
        },
        {
          "internalType": "uint256",
          "name": "votecount",
          "type": "uint256"
        }
      ],
      "stateMutability": "view",
      "type": "function",
      "constant": true
    },
    {
      "inputs": [],
      "name": "candidatesCount",
      "outputs": [
        {
          "internalType": "uint256",
          "name": "",
          "type": "uint256"
        }
      ],
      "stateMutability": "view",
      "type": "function",
      "constant": true
    },
    {
      "inputs": [
        {
          "internalType": "address",
          "name": "",
          "type": "address"
        }
      ],
      "name": "votedornot",
      "outputs": [
        {
          "internalType": "bool",
          "name": "",
          "type": "bool"
        }
      ],
      "stateMutability": "view",
      "type": "function",
      "constant": true
    },
    {
      "inputs": [
        {
          "internalType": "uint256",
          "name": "_candidateId",
          "type": "uint256"
        }
      ],
      "name": "vote",
      "outputs": [],
      "stateMutability": "nonpayable",
      "type": "function"
    }
  ],
  "bytecode": "0x608060405234801561001057600080fd5b506100556040518060400160405280600c81526020017f446f6e616c64205472756d70000000000000000000000000000000000000000081525061009e60201b60201c565b6100996040518060400160405280600981526020017f4a6f6520426964656e000000000000000000000000000000000000000000000081525061009e60201b60201c565b6101b7565b60026000815480929190600101919050555060405180606001604052806002548152602001828152602001600081525060016000600254815260200190815260200160002060008201518160000155602082015181600101908051906020019061010992919061011a565b506040820151816002015590505050565b828054600181600116156101000203166002900490600052602060002090601f016020900481019282601f1061015b57805160ff1916838001178555610189565b82800160010185558215610189579182015b8281111561018857825182559160200191906001019061016d565b5b509050610196919061019a565b5090565b5b808211156101b357600081600090555060010161019b565b5090565b6103e8806101c66000396000f3fe608060405234801561001057600080fd5b506004361061004c5760003560e01c80630121b93f146100515780631bc570221461007f5780632d35a8a2146100d95780633477ee2e146100f7575b600080fd5b61007d6004803603602081101561006757600080fd5b81019080803590602001909291905050506101ac565b005b6100c16004803603602081101561009557600080fd5b81019080803573ffffffffffffffffffffffffffffffffffffffff1690602001909291905050506102ca565b60405180821515815260200191505060405180910390f35b6100e16102ea565b6040518082815260200191505060405180910390f35b6101236004803603602081101561010d57600080fd5b81019080803590602001909291905050506102f0565b6040518084815260200180602001838152602001828103825284818151815260200191508051906020019080838360005b8381101561016f578082015181840152602081019050610154565b50505050905090810190601f16801561019c5780820380516001836020036101000a031916815260200191505b5094505050505060405180910390f35b6000803373ffffffffffffffffffffffffffffffffffffffff1673ffffffffffffffffffffffffffffffffffffffff16815260200190815260200160002060009054906101000a900460ff161561020257600080fd5b60008111801561021457506002548111155b61021d57600080fd5b600160008281526020019081526020016000206002016000815480929190600101919050555060016000803373ffffffffffffffffffffffffffffffffffffffff1673ffffffffffffffffffffffffffffffffffffffff16815260200190815260200160002060006101000a81548160ff021916908315150217905550807fd93077071c8cb212a55328c172d918aa4be24d23f29cfe1816841243ec02158260405160405180910390a250565b60006020528060005260406000206000915054906101000a900460ff1681565b60025481565b6001602052806000526040600020600091509050806000015490806001018054600181600116156101000203166002900480601f0160208091040260200160405190810160405280929190818152602001828054600181600116156101000203166002900480156103a25780601f10610377576101008083540402835291602001916103a2565b820191906000526020600020905b81548152906001019060200180831161038557829003601f168201915b505050505090806002015490508356fea26469706673582212201d844bddc1d03e20f59e3b3ddfe6f66589cb362ccc7362d1cd79a143ad52604f64736f6c63430007000033",
  "immutableReferences": {},
  "source": "pragma solidity 0.7.0;\n\ncontract Election{\n    \n    // Informacion del candidato: identificador, nombre y numero de votos\n    struct Candidate{\n        uint id;\n        string name;\n        uint votecount;\n    }\n    \n    mapping(address => bool) public votedornot;\n    \n    mapping(uint => Candidate) public candidates;\n    \n    event electionupdates(uint indexed _candidateId);\n          \n    uint public candidatesCount;\n        \n    constructor() { // aqui se inicia la eleccion declarando los nombres de los candidatos\n        addCandidate(\"Donald Trump\");\n        addCandidate(\"Joe Biden\");\n    }\n    \n    // añadir un candidato\n    function addCandidate(string memory name) private{\n        \n        candidatesCount++;\n        candidates[candidatesCount] = Candidate(candidatesCount, name, 0);\n    }\n    \n    function vote (uint _candidateId) public {\n        \n        // require that they haven't voted before\n        require(!votedornot[msg.sender]); // nombre -> hasVoted, no está \n        \n        // require a valid candidate\n        require(_candidateId > 0 && _candidateId <= candidatesCount);\n        \n        // update candidate votecount\n        candidates[_candidateId].votecount++;\n        \n        // record that voter has voted\n        votedornot[msg.sender] = true;\n        \n        //trigger voted event\n        emit electionupdates(_candidateId);\n    }\n}",
  "sourcePath": "/home/alien/Escritorio/TFM/version01082021/contracts/Election.sol",
  "compiler": {
    "name": "solc",
    "version": "0.7.0+commit.9e61f92b.Emscripten.clang"
  },
  "schemaVersion": "3.4.1",
  "updatedAt": "2021-08-02T17:32:11.499Z",
  "networkType": "ethereum",
  "devdoc": {
    "kind": "dev",
    "methods": {},
    "version": 1
  },
  "userdoc": {
    "kind": "user",
    "methods": {},
    "version": 1
  }
}